:020000040800F2
:10000000E06B0020E9F00008F30B0008F50B000896
:10001000F90B0008FD0B0008010C000800000000AF
:10002000000000000000000000000000050C0008B7
:10003000070C000800000000090C00080B0C000869
:1000400003F1000803F1000803F1000803F10008C0
:1000500003F1000803F100084B19000803F1000840
:1000600003F1000803F1000803F1000803F10008A0
:1000700003F1000803F100087F3000085D3000083C
:1000800003F1000803F1000803F1000803F1000880
:1000900003F1000803F1000803F1000803F1000870
:1000A00003F1000803F1000803F1000803F1000860
:1000B0001B3600081B340008710B000803F1000810
:1000C00003F1000803F1000803F1000803F1000840
:1000D00003F10008E93800088B0B000803F1000861
:1000E00003F1000803F1000803F1000803F1000820
:1000F00003F1000803F1000803F1000803F1000810
:1001000003F1000803F10008130B000803F10008D5
:1001100003F1000803F10008990A000803F1000840
:1001200003F1000803F1000803F1000803F10008DF
:1001300003F1000803F1000803F1000803F10008CF
:1001400003F1000803F1000803F1000803F10008BF
:1001500003F1000803F1000803F1000803F10008AF
:1001600003F1000803F1000803F1000803F100089F
:1001700003F1000803F1000803F1000803F100088F
:1001800003F1000803F1000800F002F800F0B6F8EF
:100190000AA090E8000C82448344AAF10107DA45E2
:1001A00001D100F0ABF8AFF2090EBAE80F0013F07E
:1001B000010F18BFFB1A43F001031847783C0100F8
:1001C000983C010010F8013B0A4413F0030408BFF7
:1001D00010F8014B1D1108BF10F8015B641E05D01B
:1001E00010F8016B641E01F8016BF9D1002D15D0D8
:1001F00010F8014B03F00C030C2BA1EB04040ABF15
:1002000010F8013BA4EB8314A4EB032405F10103D4
:1002100014F8016B5B1E01F8016BF9D5914238BFF0
:1002200010F8013BD1D3704700230024002500269D
:10023000103A28BF78C1FBD8520728BF30C148BF49
:100240000B6070476E290FF0F48270290FF0478021
:10025000662911F03886652911F03586672911F075
:1002600032866129AFF3008003681B0A28BF41F082
:10027000800169290EF0B88764290EF0B5877529C9
:100280000EF0B2876F290FF0F98578290FF01380EF
:10029000E9290FF09385E4290FF09085F5290FF0F7
:1002A0008D85EF290FF0F685F8290FF0128003688D
:1002B000DB0928BF41F0800163290FF00285732913
:1002C0000FF00785E3290FF08786F3290FF08C865E
:1002D000002070471FB511F0ECFD0FF0E5FD0400A4
:1002E0000020002111F006F8401C60600020002171
:1002F00010F0EAFFE0601FBD10B510BD0FF00EFF5B
:100300001146FFF7E7FF00F04DF80FF035FF03B49B
:10031000FFF7F2FF03BC03F02DFA000010B5012136
:1003200008070DF074F8012188030DF081F84FF4EF
:10033000A0600CF08FFCA82003F09AF900F084FD77
:1003400000F081FF01F093FF02F008FD002403E0BC
:100350003F20FC490855641C802CF9DB0020FA4939
:10036000087010BD10B5C2B09FEDF80B8DED000BFD
:100370009FEDF80B53EC102BF8A00EF0E9FEFE48B1
:100380000368FE48FE49026802A80EF0EDFE02A8CE
:100390000FF086F80446224602A9FAA004F02BF9D1
:1003A00042B010BDFFF7BAFF4FF4E13003F0F0F9AF
:1003B0004FF4E13003F043FA42F2CF01312002F072
:1003C000A9FE42F2CF0140F2E73002F0CFFE4FF437
:1003D000E1514FF4967002F04BFF03F017FB03F06E
:1003E00059FE04F03BF836E3D7480078102815D0C2
:1003F00003DC48B1012854D104E0112852D031283F
:100400004FD100E052E051E00120CF49087001F0E7
:100410007DFE10B93120CC49087047E001F050FC56
:10042000E549087008460178E4A00EF091FEE24824
:100430000078012806D002280FD0032819D00428FC
:1004400026D121E00120E64908600020E549C1F8F5
:10045000A402E349091D08601EE00020E04908608D
:100460000120E049C1F8A4020020DD49091D08600F
:1004700012E00020DA490860DA49C1F8A40201203C
:10048000D749091D086007E0D7A00EF061FE03E020
:10049000D8A00EF05DFE00BF00BF0020AA49087082
:1004A00004E000BF0020A849087000BF00BFD64884
:1004B0000078012872D1D5480068D549096888427A
:1004C0002AD0D2480068807810280CD0CF48006825
:1004D0008078822803D1CF480078012803D0CE4805
:1004E0000078012818D1C94800688178CBA00EF0A7
:1004F0002FFEC648006803F05EFAC448006800F5A5
:100500000070C249086008460068C8490968884206
:1005100002D1C748BD490860C6480068C649096895
:10052000884279D0C5A00EF013FEC24800688078DA
:1005300020283CD1BF480068407906282FD2DFE848
:1005400000F0030A11181F26BFA00EF001FE0120C3
:10055000B04908702AE0C1A00EF0FAFD0020AA49B7
:10056000087023E0C8A00EF0F3FD0020A649087033
:100570001CE0D1A00EF0ECFD0020A349087015E0AE
:10058000D7A00EF0E5FD00209F4908700EE0DFA027
:100590000EF0DEFD00209C49087007E035E2E3A084
:1005A0000EF0D6FD00209849087000BF4BE0A1482E
:1005B0000068807890281FD19E480068807910B12B
:1005C000012811D100E000BFE1A00EF0C1FD012023
:1005D000914908700020E149087002F075FE02F0B0
:1005E000E4FEFFF7BFFE06E0DDA00EF0B1FD002047
:1005F0008549087000BF26E08E4800688078D028C2
:1006000015D1DDA00EF0A4FDD4480078012804D156
:100610000020D249087016E024E0D0480078012874
:1006200011DD0020CD49087002F04EFE0BE081483C
:1006300000688078302806D1D3A00EF089FD7D486F
:10064000006804F076F87B48006800F5007079498E
:10065000086008460068D1490968884202D1D0483C
:1006600074490860CF480068CF490968884267D05C
:100670000024CC480168891CCCA00EF069FDCEA1F5
:10068000C8480068801C0EF0F9FE041E14D0607B80
:10069000312807D1E178CBA00EF05AFD0120504956
:1006A000086009E0607B302806D1E178C5A00EF033
:1006B0004FFD00204A490860C7A1BA480068801C65
:1006C0000EF0DCFE041E13D0E07B312808D1E17867
:1006D000BCA00EF03DFD01204149091D086007E066
:1006E000E178B8A00EF034FD00203D49091D0860F6
:1006F000BDA1AC480068801C0EF0C0FE041E11D0E5
:10070000E07B312807D1E178AEA00EF021FD012079
:10071000B949086006E0E178AAA00EF019FD0020B2
:10072000B54908609F48006800F500709D49086061
:1007300008460068B1490968884202D1B04861E1C1
:1007400089E161E10063002000000020333333338E
:10075000333326400000000000002440CEC2B6C85B
:10076000A3BA252E32662020CAAAB6C8A3BA252E5F
:1007700032660D0A0000000008000020040000207E
:100780006C3D01082F7379732F61315742324E4609
:10079000725654612F657370383236362F7468691B
:1007A0006E672F6576656E742F70726F70657274E8
:1007B000792F706F73740000030000200D0A2E2E35
:1007C0002E2E2E2E54686520726573756C74206908
:1007D000732025642E2E2E2E2E2E0D0A00000000D2
:1007E00080024242008040420D0AD2D1BFAAC3C556
:1007F0000D0A00000D0A6E6F6E65206F662074682A
:10080000656E210D0A000000D5000020A400002024
:10081000A0000020D6000020D7000020B7A2CBCD3A
:10082000CAFDBEDD3A307825780D0A00A800002008
:10083000003300209800002094000020BDD3CAD5CA
:10084000B5BDCAFDBEDD3A00434F4E4E454354B1DF
:10085000A8CEC4B3C9B9A60D0A000000C1ACBDD36F
:10086000D2D1BEDCBEF8A3ACB2BBD6A7B3D6B5C45A
:10087000D0ADD2E9B0E6B1BEA3ACD7BCB1B8D6D842
:10088000C6F40D0A00000000C1ACBDD3D2D1BEDC5D
:10089000BEF8A3ACB2BBBACFB8F1B5C4BFCDBBA74D
:1008A000B6CBB1EACAB6B7FBA3ACD7BCB1B8D6D801
:1008B000C6F40D0A00000000C1ACBDD3D2D1BEDC2D
:1008C000BEF8A3ACB7FECEF1B6CBB2BBBFC9D3C3A3
:1008D000A3ACD7BCB1B8D6D8C6F40D0A000000004E
:1008E000C1ACBDD3D2D1BEDCBEF8A3ACCEDED0A7A6
:1008F000B5C4D3C3BBA7C3FBBBF2C3DCC2EBA3AC81
:10090000D7BCB1B8D6D8C6F40D0A0000C1ACBDD36F
:10091000D2D1BEDCBEF8A3ACCEB4CADAC8A8A3ACB0
:10092000D7BCB1B8D6D8C6F40D0A0000C1ACBDD34F
:10093000D2D1BEDCBEF8A3ACCEB4D6AAD7B4CCAC70
:10094000A3ACD7BCB1B8D6D8C6F40D0A00000000DD
:10095000B6A9D4C4B3C9B9A60D0A0000D4000020BA
:10096000B6A9D4C4CAA7B0DCA3ACD7BCB1B8D6D89A
:10097000C6F40D0A0000000050494E47B1A8CEC48D
:10098000BBD8B8B40D0A0000B7FECEF1C6F7B5C8A3
:10099000BCB630CDC6CBCD0D0A0000009C000020B7
:1009A00000230020B0000020AC000020C3FCC1EEFA
:1009B0003A25730D0A000000506F7765725377690E
:1009C000746368000D0AB5C3B5BDB5C4CAFDBEDD0C
:1009D000CAC725630D0A0000506F776572537769A7
:1009E0007463685F32000000506F776572537769F7
:1009F0007463685F33000000A4824042B4000020AA
:100A0000004300201449086025E014A00EF0A0FB6C
:100A1000002117480DF04CFE002116480DF048FE4D
:100A20000020154908604FF4806114480EF0D6FD8F
:100A300003F033F978B912A00EF08AFB01201549B2
:100A4000087000200C4908604FF480610B480EF0DC
:100A5000C5FD03F0ADFCC7E4B0000020D0E8D2AA89
:100A6000C1ACBDD3B7FECEF1C6F70D0A0000000041
:100A7000000C0040001000408C000020001B0020F3
:100A8000BDA8C1A2544350C1ACBDD3B3C9B9A60DD2
:100A90000A000000D500002010B501215B480EF0CF
:100AA00036FA002834D05A485A4902685A48006831
:100AB000801C0EF014FD56480088000A564909684B
:100AC00008705348007854490968487052480068D3
:100AD00000F5007050490860084600684F490968F1
:100AE000884202D14E484C490860002048490860BD
:100AF00000214C480DF09CFD002144480DF0D8FD2C
:100B0000002142480DF094FD012140480EF010FAFA
:100B100010BD10B5012143480EF0F9F938B3424831
:100B20000078062819D2DFE800F003060B0C0D1040
:100B300003F056FD11E002F0FFFB03F051FD0CE065
:100B400000BF00BF03F04CFD07E0002037490870EC
:100B5000002134480DF0ACFD00BF00BF32480078E2
:100B6000401C3149087001212E480EF0E1F910BDFA
:100B700010B501212E480EF0CAF928B1FFF7F2FB9B
:100B800001212B480EF0D4F910BD10B540F22551CB
:100B900028480CF027FF58B32448007880B925482E
:100BA000001D008820B32348001D00881949184AF9
:100BB0001268885416480068401C1549086017E000
:100BC0001C48001D00881349114A126888541048B7
:100BD000006820B901210D480DF06AFD03E00021F5
:100BE0000A480DF025FD0A480068401C08490860C5
:100BF00010BD704700BFFEE700BFFEE700BFFEE785
:100C000000BFFEE770477047704770470010004014
:100C10008C000020001B0020940000209C0000207D
:100C200000230020000C0040D4000020D50000204C
:100C300000080040004400400CB5002001900090E6
:100C40007648006840F480307449086000BF7348FB
:100C5000006800F4003000900198401C019000985A
:100C600018B90198B0F5A04FF1D16C48006800F4B4
:100C7000003010B10120009001E0002000900098A9
:100C8000012846D165484030006840F080506349F3
:100C9000403108606248006840F4404060490860A4
:100CA0005E48083000685D49083108600846006801
:100CB00040F4004008600846006840F4A050086016
:100CC0005848091F0860081F006840F08070091F1D
:100CD000086000BF5148006800F000700028F9D09B
:100CE00040F20570504908604C480830006820F018
:100CF00003004A49083108600846006840F00200D5
:100D0000086000BF45480830006800F00C00082863
:100D1000F8D10CBD10B54548006840F47000434957
:100D200008603E48006840F001003C49086000202F
:100D30003A4908310860394800683D490840374958
:100D400008603C48091D0860081F006820F48020E6
:100D5000091F0860002031490C310860FFF76CFF63
:100D60004FF0006031498039086010BD70B5002037
:100D70000022022300240221284D08352D6805F0A9
:100D80000C0020B1042806D0082834D107E02A4DF1
:100D90002A4E356033E02A4D284E35602FE01F4D36
:100DA0002D1D2D68C5F380541C4D2D1D2D6805F09B
:100DB0003F0154B1224DB5FBF1F5184E361D366892
:100DC000C6F3881605FB06F209E01B4DB5FBF1F5ED
:100DD000124E361D3668C6F3881605FB06F20F4D17
:100DE0002D1D2D68C5F301456D1C6B00B2FBF3F59D
:100DF000124E356003E0104D104E356000BF00BF4D
:100E0000064D08352D68C5F303150E4E705D0B4D6C
:100E10002D68C540094E356070BD000000380240A5
:100E20000070004008544007003C024088ED00E09C
:100E3000FFFFF6FE103000240024F4000C00002018
:100E400000127A00100000201CB5012102200CF0D5
:100E500095FA012110200CF091FA4FF400700090E7
:100E600001208DF8040000208DF8060003208DF885
:100E7000050001208DF80700694609480BF0E0FFE6
:100E800003200090694607480BF0DAFF4FF4007129
:100E900003480CF053F8032102480CF04FF81CBD36
:100EA000000402400010024010B5FE4B1960002300
:100EB000FD4CC4F8AC32002216E00023F94C241F8C
:100EC000236000F080031BB10123241F236003E093
:100ED0000023F44C083C23600123F24C241F2360C0
:100EE0004306180E531CDAB2082AE6DB0123EF4C46
:100EF0002360EF4CC4F8BC3210BD30B500241CE0B8
:100F000004F1B001C8B20021FFF7CEFF002108466E
:100F1000FFF7CAFF00211020FFF7C6FF002508E0F9
:100F2000E44901EBC501085D0121FFF7BDFF681C25
:100F3000C5B2802DF4DB601CC4B2082CE0DB30BDF0
:100F400000B500218D20FFF7AFFF00211420FFF72F
:100F5000ABFF0021AF20FFF7A7FF00BD00B50021C8
:100F60008D20FFF7A1FF00211020FFF79DFF00213A
:100F7000AE20FFF799FF00BD30B500240CE000253E
:100F800006E00020CB4901EBC5010855681CC5B23D
:100F9000802DF6DB601CC4B2082CF0DBFFF7ADFF40
:100FA00030BDF0B5144600267F2801DC3F2900DD66
:100FB000F0BD0B46CF1701EB5777FF10C7F10707BE
:100FC000FAB2CF1701EB5777FF10A1EBC707FDB2BD
:100FD000C5F107070123BB40DEB24CB1B54B03EBB3
:100FE000C0039B5C3343B34F07EBC007BB5408E01F
:100FF000B04B03EBC0039B5CB343AE4F07EBC007A2
:10100000BB5400BFD4E72DE9F04706460F46904693
:101010009946DDF820A034460CE03D4606E05246F5
:1010200029462046FFF7BDFF681CC5B24D45F6DDD9
:10103000601CC4B24445F0DDFFF75FFFBDE8F087F8
:101040002DE9F84F80460F4616461C46BA46204604
:10105000E31704EB5373DB1021464FEAE47C04EB07
:101060005C7C4FEAEC0CA4EBCC0CBCF1000F02D082
:101070004FF0010C01E04FF0000C6344224604EBFA
:10108000D27C4FEA6C0C03FB0CF303F0FF0BA6F1D0
:101090002000C6B200254EE00C2C07D106EB46001E
:1010A000854901EB8000405D009013E0102C05D1D4
:1010B000824800EB0610405D00900BE0182C07D131
:1010C00006EBC6007E4901EB8000405D009001E028
:1010D000BDE8F88F4FF0000927E0009800F080008D
:1010E00028B1394640460A9AFFF75BFF09E00A98A3
:1010F00008B9012000E00020024639464046FFF7CB
:1011000050FF00984006000E0090781CC7B2A7EB75
:101110000A00A04205D1574608F1010000F0FF087F
:1011200006E009F1010000F0FF09B9F1080FD4DB76
:1011300000BF681CC5B25D45AEDB00BFC8E710B597
:101140000246012000E050430B1EA1F10104E1B270
:10115000F9D110BD2DE9FF4F81B0074691461E46DB
:101160000E9D4FF0000A002439E0301B401EC1B232
:101170000A20FFF7E4FFB9FBF0F00A21B0FBF1F21F
:1011800001FB1208BAF1000F16D1701EA04213DD48
:10119000B8F1000F0ED10120AB4605EBDB71491011
:1011A00001FB04710090C8B22B4620220299FFF780
:1011B00047FF12E04FF0010A0120AB4605EBDB715F
:1011C000491001FB04710090C8B208F13001CAB2A5
:1011D0002B460299FFF734FF00BF601CC4B2B44233
:1011E000C3DB05B0BDE8F08FF8B506460F461546DF
:1011F0001C4621E004EBD4714910C1F18001B142D9
:1012000002DA00263819C7B2C4F14000B84204DA45
:10121000002006460746FFF7AFFE012000902A781F
:10122000234639463046FFF70BFF204604EBD071CA
:1012300006EB6101CEB26D1C28787E2802DC28788E
:101240002028D7DAF8BD1CB501215F200CF096F8F4
:101250004FF40060009001208DF8040000208DF80C
:10126000060003208DF8050001208DF8070069466F
:1012700014480BF0E5FD4FF4C04000906946124859
:101280000BF0DEFD4FF40040009069460E480BF075
:10129000D7FD4FF48060009069460A480BF0D0FDFE
:1012A000012013E0BC02424200804042AC82404236
:1012B00000004242F0100020CA1E01083E2301082F
:1012C0002E29010800040240001002403D4908395F
:1012D00008603D49C1F8B8023C49086039490860D6
:1012E00000203A49091F0860642002F023FA012017
:1012F0003749C1F8A8020021AE20FFF7D5FD002133
:10130000D520FFF7D1FD00215020FFF7CDFD0021B2
:10131000A820FFF7C9FD00213F20FFF7C5FD0021F0
:10132000D320FFF7C1FD00210846FFF7BDFD0021D6
:101330004020FFF7B9FD00218D20FFF7B5FD00210A
:101340001420FFF7B1FD00212020FFF7ADFD0021A3
:101350000220FFF7A9FD0021A120FFF7A5FD002134
:10136000C020FFF7A1FD0021DA20FFF79DFD00213D
:101370001220FFF799FD00218120FFF795FD002144
:10138000EF20FFF791FD0021D920FFF78DFD00210F
:10139000F120FFF789FD0021DB20FFF785FD00210B
:1013A0003020FFF781FD0021A420FFF77DFD002103
:1013B000A620FFF779FD0021AF20FFF775FDFFF7AD
:1013C000DBFD1CBDBC02424200004242AC824042F6
:1013D000008040421CB5012105200CF029F80220B4
:1013E00000908DF8050000208DF8040001208DF894
:1013F00007006946FE480BF023FD052000900220FF
:101400008DF8050001208DF8040000208DF80600FD
:1014100001208DF807006946F5480BF011FD052104
:10142000F3480BF089FD0E20009002208DF8050096
:1014300001208DF8040000208DF8060001208DF8B1
:1014400007006946EB480BF0FBFC1CBD00B585B0FE
:10145000012104200BF0ECFF0120009000208DF80A
:10146000040001208DF8070002208DF80500694670
:10147000E0480BF0E5FC012188030BF0D9FF0021C7
:1014800002200CF00AFB0120039000208DF81000D0
:101490000C208DF8110001208DF8120003A80CF02B
:1014A00043FB0121D3480BF047FD01200CF09EFBCC
:1014B00006208DF8080000208DF809008DF80A003C
:1014C00001208DF80B0002A80BF0C9FB05B000BD90
:1014D000014600E0491E0029FCD170472DE9F0418A
:1014E00005460E46002404270821C2480BF026FDBD
:1014F0000421C0480BF022FD3220FFF7E9FF00BFB6
:101500001EE007F08000802804D10121B8480BF0CC
:1015100013FD03E00121B6480BF010FD3220FFF768
:10152000D7FF0421B2480BF009FD7806070E3220E0
:10153000FFF7CEFF0421AE480BF0FEFC601CC4B2E6
:10154000082CDEDB00241EE005F08000802804D19A
:101550000121A7480BF0F0FC03E00121A4480BF0A7
:10156000EDFC3220FFF7B4FF0421A1480BF0E6FCAC
:101570006806050E3220FFF7ABFF04219C480BF0F4
:10158000DBFC601CC4B2082CDEDB00241EE006F08D
:101590008000802804D1012195480BF0CDFC03E0A8
:1015A000012193480BF0CAFC3220FFF791FF042180
:1015B0008F480BF0C3FC7006060E3220FFF788FF41
:1015C00004218B480BF0B8FC601CC4B2082CDEDB95
:1015D0003220FFF77DFF042186480BF0ADFCBDE80B
:1015E000F0812DE9F041054600240026A04605279C
:1015F000082180480BF0A2FC04217E480BF09EFCE1
:101600003220FFF765FF00BF1EE007F08000802852
:1016100004D1012176480BF08FFC03E001217448CE
:101620000BF08CFC3220FFF753FF042170480BF0C5
:1016300085FC7806070E3220FFF74AFF04216C482C
:101640000BF07AFC601CC4B2082CDEDB00241EE028
:1016500005F08000802804D1012165480BF06CFC66
:1016600003E0012162480BF069FC3220FFF730FFF4
:1016700004215F480BF062FC6806050E3220FFF77C
:1016800027FF04215A480BF057FC601CC4B2082CF9
:10169000DEDB3220FFF71CFF00241BE07006060E85
:1016A000022153480BF02EFC80463220FFF710FF3A
:1016B00004214F480BF042FCB8F1010F01D146F074
:1016C00001063220FFF704FF042149480BF034FCE7
:1016D000601CC4B2082CE1DB3220FFF7F9FE0421C4
:1016E00044480BF029FC3046BDE8F0811CB50620CB
:1016F000FFF777FF044613E03F480068401C3E496F
:1017000008606B46012201A93C4805F0D0FA9DF81B
:1017100004100120FFF7E2FE0620FFF762FF0446F7
:1017200004F0080028B9344800683549096888423F
:10173000E2D93148006832490968884233D301212F
:10174000BC20FFF7CBFE10212920FFF7C7FE00BF0A
:10175000BA20FFF746FF00F020000028F8D0002153
:101760002B20FFF7BBFE0021BA20FFF7B7FE0021B8
:10177000BC20FFF7B3FE0020224908700121082099
:10178000FFF7ACFE00210820FFF7A8FE0021332060
:10179000FFF7A4FE194805F0E6FC08201A49087076
:1017A00000201A4908701CBD10B5044604EB8401E2
:1017B000480001F077FF10BD10B500242B20FFF783
:1017C00010FF134908701048007808285AD10021EA
:1017D0002920FFF783FE00210220FFF77FFE64200F
:1017E000FFF7E2FF0A48007800F01000002811E03F
:1017F00000000240000802402C000020F0140020ED
:1018000028000020240000202000002000000020EC
:10181000210000202AD0B220FFF7E3FE212825D1A5
:10182000BF20FFF7DEFE352820D1FDA00DF090FC93
:10183000BA20FFF7D6FE04462146FCA00DF088FC36
:10184000012C03D0002C05DD042C03DC1020FD4905
:10185000087010BD002C05DD042C03DC1020F949B4
:10186000087006E01120F749087002E01120F549E0
:10187000087000212B20FFF731FE00211C20FFF70C
:101880002DFEE6E72920FFF7ACFEEF4908700220A5
:10189000FFF7A7FEED49087000212920FFF71EFE83
:1018A00000210220FFF71AFEBA20FFF79AFE00F08F
:1018B000200020B300212B20FFF710FE0021BA20CA
:1018C000FFF70CFE0021BC20FFF708FE0020E049D6
:1018D000087001210820FFF701FE00210820FFF712
:1018E000FDFD00213320FFF7F9FDDA4805F03BFC50
:1018F0000820D94908700020D2490870A9E7D748C4
:101900000068D7490968884211D30121BC20FFF73C
:10191000E5FD10212920FFF7E1FDCE4805F023FC6D
:101920000820CD4908700020C649087091E7FFF7EC
:10193000DDFEC54801782920FFF7D0FDC3480178B6
:101940000220FFF7CBFD00BF83E710B50A20FFF7A9
:101950002BFF01200CF04EF950B1FFF72DFFC1A075
:101960000DF0F6FB01200CF041F901200CF04DF9CF
:10197000C2A00DF0EDFB01200CF038F910BD10B540
:101980000221C4480BF0D8FA6420FFF70DFF0221B2
:10199000C0480BF0D3FA6420FFF706FF0221BD48D0
:1019A0000BF0CAFA6420FFF7FFFE0421B9480BF0E0
:1019B000C5FA6420FFF7F8FE0421B6480BF0BCFA24
:1019C0006420FFF7F1FE10BD10B50020A04908709B
:1019D0000620FFF706FE35211720FFF77FFD642064
:1019E000FFF7E2FE0620FFF7FCFD03218920FFF749
:1019F00075FD6420FFF7D8FE4321CF20FFF76EFD71
:101A00006420FFF7D1FE0221CB20FFF767FD0721FD
:101A10001120FFF763FD90480078402810D1002185
:101A20001E20FFF75BFD0F211920FFF757FD18213E
:101A30001B20FFF753FD2C211D20FFF74FFD0FE06A
:101A400000211E20FFF74AFD3F211920FFF746FD28
:101A500048211B20FFF742FD1F211D20FFF73EFDFF
:101A60006420FFF7A1FE0421CD20FFF737FD4C21B4
:101A70001720FFF733FD6420FFF796FE0021B92001
:101A8000FFF72CFD4F21CF20FFF728FDFF216F200E
:101A9000FFF724FD10BD10B540206F490870FFF717
:101AA00093FF0221BD20FFF719FDBD20FFF799FD2F
:101AB0000446214678A00DF04BFB48211720FFF784
:101AC0000DFD6420FFF770FE1720FFF78AFD044626
:101AD000214674A00DF03CFB52218520FFF7FEFC4F
:101AE0008520FFF77EFD0446214671A00DF030FBF6
:101AF00000218F20FFF7F2FC00218120FFF7EEFC90
:101B000000218320FFF7EAFCFF218E20FFF7E6FC8F
:101B1000FF218D20FFF7E2FC6420FFF745FEFF2147
:101B20008720FFF7DBFCFF218920FFF7D7FC64202B
:101B3000FFF73AFE00212220FFF7D0FC00212320EE
:101B4000FFF7CCFCEF212020FFF7C8FC0721212064
:101B5000FFF7C4FC77212420FFF7C0FC03212520D8
:101B6000FFF7BCFCBB212620FFF7B8FC0121272092
:101B7000FFF7B4FC10BD10B5044650480470C4F122
:101B80000F000007840E44F0C3018E20FFF7A6FC6F
:101B900078218720FFF7A2FC10BD70B50025062034
:101BA000FFF71FFD044608E0FF210120FFF796FC28
:101BB0006D1C0620FFF715FD044604F00800002800
:101BC000F2D070BD10B500202449086001202049E2
:101BD00008702248006822490968884200D310BD75
:101BE000FFF7DBFF0021BA20FFF778FC4821172020
:101BF000FFF774FC01213320FFF770FC042129203A
:101C0000FFF76CFC01210220FFF768FC5A218520B8
:101C1000FFF764FC01200BF0F8FF00BFDFE70000D6
:101C20000D0ABDF8C8EBC5D0B6CF00000D0ABFC97C
:101C3000C4DCBDE1B9FBD3D020256420B8F60D0A81
:101C400000000000000000202200002023000020EF
:101C500024000020F0140020200000202C00002090
:101C6000280000200D0A496E746572207468652092
:101C700068616E646C65210D0A0000000D0A45580C
:101C800049542066726F6D207468652065786974A8
:101C9000210D0A0000080240307830322025780DEE
:101CA0000A000000307834382025780D0A00000042
:101CB000307835322025780D0A00000030000020F1
:101CC00010B5C520FFF78DFC0446204610BD70B549
:101CD00005460E46287800B970BD3146C120FFF791
:101CE000FDFB0021C320FFF7F9FB04210820FFF7CB
:101CF000F5FB6420FFF758FD00210820FFF7EEFBFD
:101D00006420FFF751FD002408E0285D00B907E0DA
:101D1000295D0520FFF7E2FB601CC4B2322CF4DB26
:101D200000BF2146B920FFF7D9FBFF21B220FFF702
:101D3000D5FB04213720FFF7D1FB00BFCCE710B55E
:101D40000446322C1ED2DFE804F0191E23282D325F
:101D5000373C41464B50555A5F64696E73787D82BB
:101D6000878C91969BA0A5AAAFB4B9BEC3C8CDD2AB
:101D7000D7DCE1EFF4F9FEEAE9E8E7E62146ECA07A
:101D8000FFF7A5FFFDE02146EBA0FFF7A0FFF8E07D
:101D90002146EBA0FFF79BFFF3E02146EAA0FFF707
:101DA00096FFEEE02146EAA0FFF791FFE9E0214629
:101DB000E9A0FFF78CFFE4E02146EAA0FFF787FFE8
:101DC000DFE02146EAA0FFF782FFDAE02146EAA041
:101DD000FFF77DFFD5E02146EAA0FFF778FFD0E0CE
:101DE0002146EDA0FFF773FFCBE02146ECA0FFF703
:101DF0006EFFC6E02146EEA0FFF769FFC1E0214675
:101E0000EFA0FFF764FFBCE02146CFA0FFF75FFF24
:101E1000B7E02146CAA0FFF75AFFB2E02146C6A0AC
:101E2000FFF755FFADE02146CDA0FFF750FFA8E03A
:101E30002146CBA0FFF74BFFA3E02146C8A0FFF748
:101E400046FF9EE02146C6A0FFF741FF99E02146EC
:101E5000C3A0FFF73CFF94E02146C1A0FFF737FF86
:101E60008FE02146BEA0FFF732FF8AE02146BCA0EA
:101E7000FFF72DFF85E02146B9A0FFF728FF80E09E
:101E80002146B7A0FFF723FF7BE02146B4A0FFF770
:101E90001EFF76E02146B2A0FFF719FF71E0214650
:101EA000AFA0FFF714FF6CE02146ADA0FFF70FFFD6
:101EB00067E02146AAA0FFF70AFF62E02146A8A03A
:101EC000FFF705FF5DE02146A5A0FFF700FF58E002
:101ED0002146A3A0FFF7FBFE53E02146A0A0FFF799
:101EE000F6FE4EE021469EA0FFF7F1FE49E02146B6
:101EF0009BA0FFF7ECFE44E0214699A0FFF7E7FE28
:101F00003FE0214696A0FFF7E2FE3AE0214694A08A
:101F1000FFF7DDFE35E02FE029E023E01DE017E0CC
:101F200011E00BE005E0FFE721468DA0FFF7CFFEB3
:101F300027E021468AA0FFF7CAFE22E0214688A0BA
:101F4000FFF7C5FE1DE0214685A0FFF7C0FE18E0A3
:101F5000214683A0FFF7BBFE13E0214680A0FFF7D8
:101F6000B6FE0EE021467EA0FFF7B1FE09E0214655
:101F70007BA0FFF7ACFE04E0214679A0FFF7A7FEA7
:101F800000BF00BF10BD70B5002500240BE0B220DB
:101F9000FFF727FB212801D1012506E06420FFF788
:101FA00003FC601CC4B20A2CF1DB00BF284670BDE4
:101FB00070B5012500240CE0FFF7E5FF08B9002506
:101FC00009E02046FFF7BBFE6420FFF7EDFB601C35
:101FD000C4B2112CF0DB00BF284670BD10B508203C
:101FE0007B490870FFF7F0FC0021BD20FFF776FA6F
:101FF00048211720FFF772FA6420FFF7D5FB8021F4
:102000003C20FFF76BFA07213E20FFF767FAFF211C
:102010003820FFF763FA07213A20FFF75FFA002123
:102020004020FFF75BFA08214220FFF757FA002112
:102030004420FFF753FA08214620FFF74FFA6420A7
:10204000FFF7B2FB10BD10B5FFF7C8FF10BD10B50C
:10205000BF20FFF7C6FA0620FFF7C3FA3520FFF7C7
:10206000C0FAB320FFF7BDFA10BD10B545213520E9
:10207000FFF734FA09211C20FFF730FA2021BD2098
:10208000FFF72CFA01210820FFF728FA6420FFF758
:102090008BFB00210820FFF721FA6420FFF784FB67
:1020A000BA20FFF79EFA044621464AA00DF050F8E8
:1020B000FFF769FF20B94BA00DF04AF8002010BDD2
:1020C000FF21B220FFF70AFA06213720FFF706FAB0
:1020D0006420FFF769FBBF20FFF783FA044621461F
:1020E00045A00DF035F8FFF7B2FF0B211C20FFF7DC
:1020F000F5F910212920FFF7F1F90021BD20FFF7A4
:10210000EDF902200BF081FD0120D8E72DE9F04127
:1021100000240025002600BFA2E0FFF794FF642002
:10212000FFF742FBFFF744FF08B9002174E07CE0B1
:102130006E692068616F0000686F6E6720736500CC
:102140006C616E20736500006C7620736500000082
:102150006B6169206D656E0070696E672067756FD1
:1021600000000000776F2068656E2066616E0000D9
:1021700074696E67206765006C69616F20746961BE
:102180006E0000007368692078696E207A616920AA
:1021900067616E20736100007765692073610000DC
:1021A0007A6169207869616E6720736875690000DB
:1021B0006E69206A6920737569206C6500000000F3
:1021C0006E69206465207368656E6720726900001F
:1021D0002000002074686520424120697320257822
:1021E000000000000D0AD0BEC6ACC4DAB2BFB3F620
:1021F000B4ED0D0A000000000D0A416464726573BD
:10220000732830784246292076616C7565206973A1
:102210002025780D0A00000019A00CF099FFFFF7A7
:10222000AEFB6420FFF7C0FA18E0BF20FFF7D9F932
:10223000074639461FA00CF08BFFFFF708FF64200C
:10224000FFF7B2FAFFF711FF05462DB9FFF797FB2D
:102250006420FFF7A9FA01E0012604E0601CC4B283
:10226000052CFFF65AAF00BF3046BDE8F08110B52F
:10227000FFF7B0F8FFF7EAF8FFF781FB10BD0000A9
:102280004C4433333230D0BEC6ACC4DAB2BFB3F63E
:10229000CFD6B2BBD5FDB3A3A3ACC1A2BCB4D6D834
:1022A000C6F44C4433333230D0BEC6AC25640D0A7C
:1022B000000000004C445F417372416464466978D9
:1022C00065642069732025780D0A000010B5044666
:1022D000204600F01AFD10BD10B5382000F003FDB7
:1022E00010BD10B5002000F0FEFC10BD704710B509
:1022F0000120FE490860FF20FFF7E8FF10BD10B580
:10230000002400BFFF20FFF7E1FFFF2801D10020DC
:1023100010BD641C6FF07F408442F3D30120F7E7C7
:1023200010B50020F1490860FFF7E9FF08B9002067
:1023300010BDFFF7DCFF0120FAE770B5054640F657
:10234000FF7401E0601E84B2FF20FFF7BFFFA842C8
:1023500001D0002CF6D10CB9FF2070BD0020FCE7A5
:1023600070B504460D46FE20FFF7E7FF08B10120D7
:1023700070BD04E0FF2000F0C8FC2070641C281E23
:10238000A5F101018DB2F5D1FF20FFF79FFFFF20DE
:10239000FFF79CFF0020EBE770B506460D46FFF700
:1023A000AEFF08B1012070BD2846FFF78FFFFD2D5D
:1023B00019D0002404E0305D00F0A7FC601C84B25A
:1023C000B4F5007FF7DBFF20FFF780FFFF20FFF76A
:1023D0007DFFFF20FFF77AFF044604F01F00052869
:1023E00001D00220DFE70020DDE72DE9F0410546BE
:1023F0000C4616460027FF2000F087FCFF2000F067
:1024000084FC4FF48051BA480AF098FD45F0400032
:1024100000F07BFC200E00F078FCC4F3074000F0D5
:1024200074FCC4F3072000F070FCE0B200F06DFC17
:10243000304600F06AFC04E0781CC7B2C82F00DD0B
:1024400005E0FF2000F061FC8046FF28F4D000BFCB
:102450004046BDE8F0812DE9F04105460C4617469F
:102460004FF00008FFF743FFFFF75AFF10B1FF20BE
:10247000BDE8F08145F04000FFF728FF200EFFF790
:1024800025FFC4F30740FFF721FFC4F30720FFF740
:102490001DFFE0B2FFF71AFF3846FFF717FF0C2DBC
:1024A00002D1FF20FFF712FF4FF01F0800BFFF20EF
:1024B000FFF70CFF064606F0800030B1B8F10000CF
:1024C000A8F1010101F0FF08F1D13046D0E770B565
:1024D0000546012200210A20FFF7BDFF044624B96A
:1024E00010212846FFF73CFF0446FFF700FF0CB120
:1024F000012070BD0020FCE770B5054601220021D7
:102500000920FFF7A8FF044624B910212846FFF749
:1025100027FF0446FFF7EBFE0CB1012070BD002041
:10252000FCE77FB56846FFF7E7FF10B1002004B075
:1025300070BD9DF8000000F0C000402809D19DF852
:1025400009009DF8081000EB0120401C84B2A50290
:1025500020E09DF8050000F00F009DF80A1000EB48
:10256000D1109DF8091001F0030100EB4100861C19
:102570009DF8080080119DF8071000EB81009DF880
:10258000061001F0030100EB8120441CA6F10900B4
:1025900004FA00F52846CAE770B504460E4615460B
:1025A0004FF4805152480AF0C9FCFE20FFF7C5FEE7
:1025B00030B14FF480514E480AF0BEFC012070BD8E
:1025C00004E0FF2000F0A1FB2070641C301EA6F187
:1025D00001018EB2F5D1FF2000F097FBFF2000F043
:1025E00094FB012D06D1290341480AF0A5FCFF20E8
:1025F00000F08BFB0020E2E770B5002401E0601CD6
:1026000084B2B4F5706FFADB002404E0FF2000F020
:102610007CFB601C84B20A2CF8DB002500BF9522ED
:1026200000210846FFF717FF0446681CC5B2012CBD
:1026300001D0C82DF3DBC82D01D1012070BD0020D1
:10264000FCE7F8B5FFF752FEFFF746FE002504E071
:10265000FF20FFF73BFE681C85B20A2DF8DB14262D
:1026600000BF952200210846FFF7F5FE0446012C25
:1026700004D0301EA6F101018EB2F2D100201D4916
:102680000870012C51D187224FF4D5710820FFF733
:10269000E2FE01284ED1002506E0FF20FFF716FEDE
:1026A0000DF80500681C85B2042DF6DB9DF80200CC
:1026B0000128E7D19DF80300AA287CD14FF6FE76C9
:1026C00000BF012200213720FFF7C5FE012291073C
:1026D0002920FFF7C0FE044624B1301EA6F10101F7
:1026E0008EB2EED1002E66D0012205E0B0824042CB
:1026F000000402403800002000213A20FFF7ABFE22
:10270000002858D1002506E0FF20FFF7DFFD0DF877
:102710000500681C85B2042DF6DB9DF8000000F072
:10272000400018B10620F749087044E00420F5493C
:10273000087040E0012200213720FFF78CFE0122C3
:1027400000212920FFF787FE0446012C17DC022018
:10275000EC4908704FF6FE7600BF012200213720B9
:10276000FFF779FE012200212920FFF774FE0446BD
:10277000BCB1301EA6F101018EB2EED111E00120F4
:10278000E04908704FF6FE7600BF01220021104696
:10279000FFF761FE044624B1301EA6F101018EB29E
:1027A000F3D12EB1012251021020FFF754FE10B1D7
:1027B0000020D4490870FFF79AFDFFF792FDD14839
:1027C000007808B10020F8BD0CB12046FBE7AA2034
:1027D000F9E72DE9F04106460F461546C94800784D
:1027E000062800D07F02012D0CD10122394611208C
:1027F000FFF731FE0446FCB969023046FFF7B0FD31
:10280000044619E0012239461220FFF724FE04464F
:1028100000BF4FF400713046FFF7A2FD044606F5F5
:102820000076681EC0B2051E01D0002CF1D0012236
:1028300000210C20FFF70FFEFFF759FD2046BDE8F1
:10284000F0812DE9F04106460F461546AD48007867
:10285000062800D07F02012D0CD101223946182014
:10286000FFF7F9FD04466CBBFE213046FFF794FDEF
:10287000044627E0A3480078012809D0012200215E
:102880003720FFF7E8FD012229461720FFF7E3FD77
:10289000012239461920FFF7DEFD044694B900BF36
:1028A000FC213046FFF778FD044606F50076681EE9
:1028B000C0B2051E01D0002CF2D0FD210020FFF790
:1028C0006BFD0446FFF713FD2046BDE8F0812DE9BE
:1028D000F05F04460E4617464FF0000BD9464FEA0C
:1028E000572B4FF4805188480AF028FB37E006EB5D
:1028F000090A84480078062801D14FEA5A2AFF22A3
:1029000051461820FFF771FD05463DB14FF4805147
:102910007D480AF011FB0120BDE8F09FFE2000F089
:10292000F4F94FF0000805E014F8010B00F0EDF9A0
:1029300008F10108B8F5007FF6D3FF2000F0E5F9B3
:10294000FF2000F0E2F9FFF7DAFC30B14FF48051DC
:102950006D480AF0F1FA0220DEE709F50079BBF1D3
:102960000000ABF1010BC2D14FF4805166480AF070
:10297000E3FAFF2000F0C9F90020CDE72DE9F04788
:1029800005460E4617464FF0000AD046C1460024C1
:102990004FEA572A4FF480515B480AF0CFFA28E0FB
:1029A00006EB080957480078062801D14FEA592953
:1029B000FF2249461120FFF718FD04463CB14FF4B1
:1029C000805151480AF0B8FA2046BDE8F08701224C
:1029D00051022846FFF7E0FD044634B14FF4805120
:1029E00049480AF0A9FA2046EFE705F5007508F511
:1029F0000078BAF10000AAF1010AD1D14FF4805158
:102A000041480AF099FAFF2000F07FF90020DCE746
:102A10002DE9F04105460E463A480078062800D0D8
:102A20006D02002229461820FFF715FD044614B157
:102A30002046BDE8F0814FF4805133480AF07EFA19
:102A4000FF2000F062F9FF2000F05FF9FF2000F0A6
:102A50005CF9FE2000F059F9002705E016F8010B9B
:102A600000F053F9781C87B2B7F5007FF6DBFF2042
:102A700000F04BF9FF2000F048F9FF2000F045F985
:102A8000044604F01F00052806D04FF480511E486C
:102A90000AF052FA2046CCE74FF000080EE008F1A9
:102AA00001001FFA80F84FF6FE70804506DD4FF4F6
:102AB000805115480AF040FA0120BAE7FF2000F0E3
:102AC00024F90028EBD04FF480510F480AF034FA73
:102AD000FF2000F01AF90020ABE72DE9F041054690
:102AE0000E46144607480078062800D06D020022E2
:102AF00029461220FFF7AFFC07463FB13846BDE834
:102B0000F0810000380000200004024000BF0022D5
:102B10004FF400713046FFF73FFD00B105E006F5C8
:102B20000076601EC0B2041EF1D100BF0022114623
:102B30000C20FFF790FC4FF4805168480AF0FCF934
:102B4000FF2000F0E2F80CB12046D8E70020D6E7DD
:102B50002DE9F04106460F461546614800780628E3
:102B600000D076025E480078012805D00022294670
:102B70001720FFF770FC0446002231461920FFF7AA
:102B80006AFC044614B12046BDE8F0814FF4805140
:102B900052480AF0D3F9FF2000F0B7F8FF2000F008
:102BA000B4F800BFFC2000F0B0F84FF0000807E0D8
:102BB00017F8010B00F0A9F808F101001FFA80F8DE
:102BC000B8F5007FF4DBFF2000F09FF8FF2000F055
:102BD0009CF8FF2000F099F8044604F01F00052837
:102BE00006D04FF480513D480AF0A6F92046CBE7C5
:102BF000FFF785FB012805D1010338480AF09CF94D
:102C00000120C1E7681EC0B2051ECBD1FD2000F037
:102C10007CF8044604B9FE25FFF771FB30B14FF490
:102C200080512E480AF088F90120ADE74FF4805119
:102C30002A480AF081F9FF2000F067F82846A3E748
:102C40002DE9F04707460D461646984600247902BE
:102C500000221120FFF7FFFB8146B9F1000F02D0DF
:102C60004846BDE8F0874FF480511C480AF066F9E9
:102C7000FE20FFF762FB30B14FF4805117480AF095
:102C80005BF90120EDE7002404E0FF2000F03DF8AF
:102C9000601C84B2B442F8D306E0FF2000F035F89F
:102CA00005F8010B601C84B206EB0800A042F4D8C2
:102CB00004E0FF2000F029F8601C84B2B4F5007F26
:102CC000F7DBFF2000F021F8FF2000F01EF84FF4A2
:102CD000805102480AF030F90020C2E700040240A7
:102CE00038000020704710B504461B4800884FF696
:102CF000C7710840184908800846008820430880AA
:102D0000012115480BF0D0F810BD70B50546002420
:102D100005E0601CC4B2C82C01DD002070BD02219A
:102D20000D480BF08BF90028F3D029460A480BF028
:102D30003CF9002405E0601CC4B2C82C01DD002071
:102D4000ECE7012104480BF079F90028F3D00248A0
:102D50000BF028F9C0B2E1E7003800401CB50121B2
:102D600002200AF00BFB4FF40040009000208DF889
:102D7000040003208DF8050002208DF80700694645
:102D8000D5480AF05DF84FF44050009001208DF8CE
:102D9000040000208DF8060003208DF805000120B6
:102DA0008DF807006946CC480AF04AF81CBD10B5FA
:102DB000CA48806D00F4002010B1C9A00CF0C8F919
:102DC00010BD2DE9FF4104460F4615461E46012160
:102DD00088030AF01CFB012188030AF06DFB002127
:102DE0004FF480400AF068FBADF80070ADF8024087
:102DF000ADF804600020ADF8060002200290ADF8A6
:102E00000C506946B9480AF073FF01220221B74805
:102E10000BF0E9F80121B5480BF052F8BDE8FF814D
:102E20002DE9FF4104460F4615461E4687F4807083
:102E3000ADF80000ADF80240ADF804600020ADF838
:102E4000060002200290ADF80C506946A8480BF02D
:102E500081F80121A6480BF033F8BDE8FF8170B579
:102E60000546002400260A20B5FBF0F500BF09E066
:102E700004EB84009F4931F81000A84200D103E020
:102E8000601CC4B20B2CF3D300BF00200AF047F93A
:102E90000B2C01D1012070BD04EB8402954B03EB98
:102EA0004202918804EB840203EB420250880AF04C
:102EB0002FF99148006840F080608F49086000BF9A
:102EC0008D48006800F000600028F9D004EB840011
:102ED000884901EB4000C68804EB840001EB400008
:102EE000008946EA002646F40076804920310E80AB
:102EF0000020D0E770B590B004460E46154601217B
:102F000048050AF03BFA754870300BF0C7F800BF6F
:102F1000724870300BF0EBF90028F9D177496F480F
:102F200070300BF06BFA0020009070480C3001906C
:102F30000294402003900495002005904FF4806097
:102F400006904000079080000890401109904002D0
:102F50000A9000200B900C900D900E9069465F48EF
:102F600070300BF03DF9002231465C4870300BF0B8
:102F700098F90121594870300BF09FF90122102176
:102F8000564870300BF0F3F90F208DF83C0000200C
:102F90008DF83D008DF83E0001208DF83F000FA810
:102FA00009F05DFE10B070BD70B590B004460E46DD
:102FB0001546012148050AF0E1F9484858300BF060
:102FC0006DF800BF454858300BF091F90028F9D151
:102FD0004B49424858300BF011FA4FF0C060009056
:102FE00043480C3001900294002003900495059012
:102FF0004FF48060069040000790800008904011D8
:10300000099000020A9000200B900C900D900E90F9
:103010006946324858300BF0E3F8002231462F4819
:1030200058300BF03EF901212C4858300BF045F98F
:1030300001221021294858300BF099F90E208DF803
:103040003C0000208DF83D0001208DF83E008DF8F9
:103050003F000FA809F003FE10B070BD10B529495C
:103060001E4870300BF0A0F9012807D125491B48F4
:1030700070300BF0C3F924480068804710BD10B5CC
:103080002249164858300BF08FF9012807D11F4903
:10309000124858300BF0B2F91D480068804710BD47
:1030A00010B501210D4870300BF0D4F810BD10B5EB
:1030B00000210A4870300BF0CDF810BD10B5012189
:1030C000064858300BF0C6F810BD10B50021034873
:1030D00058300BF0BFF810BD000402400060024001
:1030E00072656164204F4B0D0A00000000380040FB
:1030F000003400408E360108003802403DF000A048
:1031000000F0409F20800020440000200080001834
:10311000480000207FB505460C46012102200AF038
:1031200076F90295ADF804400020ADF80600ADF840
:103130000C0001A9F9480BF032FA01221146F748B8
:103140000BF0CEFE0121F5480BF0B2FA1D208DF8F0
:10315000000001208DF8010002208DF802000120FE
:103160008DF80300684609F07AFD7FBD7FB50546FE
:103170000C46012108460AF04AF90295ADF80440D0
:103180000020ADF80600ADF80C0001A94FF080401A
:103190000BF005FA0122114690070BF0A1FE012168
:1031A00088070BF085FA1C208DF8000001208DF8AF
:1031B00001008DF802008DF80300684609F04FFD0C
:1031C0007FBD7FB505460C46012104200AF01FF99A
:1031D0000295ADF804400020ADF80600ADF80C00F3
:1031E00001A9CF480BF0DBF901221146CC480BF0C6
:1031F00077FE0121CA480BF05BFA1E208DF8000013
:1032000002208DF8010000208DF8020001208DF8C9
:103210000300684609F023FD7FBD7FB505460C46D7
:10322000012108200AF0F3F80295ADF804400020CF
:10323000ADF80600ADF80C0001A9BA480BF0AFF9E3
:1032400001221146B7480BF04BFE0121B5480BF0A7
:103250002FFA32208DF8000002208DF801000120A5
:103260008DF802008DF80300684609F0F8FC7FBD78
:103270007FB505460C46012110200AF0C8F80295DA
:10328000ADF804400020ADF80600ADF80C0001A92F
:10329000A5480BF084F901221146A3480BF020FE4B
:1032A0000121A1480BF004FA36208DF8000002201D
:1032B0008DF8010000208DF8020001208DF8030038
:1032C000684609F0CCFC7FBD1FB54FF4A06009F043
:1032D000C1FC012108200AF09AF892480BF0B2F8DC
:1032E0004EF65F20029048F69F40ADF804000020A3
:1032F000ADF80600ADF80C0001A98A480BF04FF9B3
:10330000012188480BF014FE0122114685480BF07C
:10331000E7FD012183480BF0CBF932208DF8000046
:1033200003208DF8010001208DF802008DF80300C4
:10333000684609F094FC1FBD1FB54FF4A06009F06A
:1033400089FC012108200AF062F876480BF07AF82F
:1033500044F61F60029041F61F40ADF804000020C3
:10336000ADF80600ADF80C0001A96E480BF017F996
:1033700001216C480BF0DCFD0122114669480BF07D
:10338000AFFD012167480BF093F932208DF8000062
:1033900002208DF8010000208DF8020001208DF838
:1033A0000300684609F05BFC1FBD1FB54FF4A06029
:1033B00009F050FC012104200AF029F858480BF0CC
:1033C00041F841F26F70029048F69F40ADF804005A
:1033D0000020ADF80600ADF80C0001A950480BF034
:1033E000DEF801214E480BF0A3FD012211464C48A6
:1033F0000BF076FD01214A480BF05AF91E208DF89A
:10340000000003208DF8010001208DF802008DF8E6
:103410000300684609F023FC1FBD10B500240121FC
:103420003E480BF074FD012877D100BFEDE000208D
:103430003E490860012000F035F94FF480513C48C6
:1034400009F07AFD012000F02DF94FF48051384841
:1034500009F074FD012000F025F94FF48051344843
:1034600009F06AFD4FF40051314809F065FD012073
:1034700000F018F94FF480512D4809F05FFD4FF42A
:1034800000512B4809F05AFD012000F00BF94FF4D0
:103490000051274809F050FD012000F003F90020F9
:1034A0002449086024490860012000F0FBF8172037
:1034B0002249086029E01D48006840001B49086057
:1034C0004FF400411A4809F01DFD1D4908604FF4F2
:1034D0000051174809F032FD1948006828B1134817
:1034E000006840F0010011490860012000F0DAF89E
:1034F0004FF400510E4809F01FFD012000F0D2F8F2
:103500000E480068401E0D4908600C4800680028FD
:10351000D1DA06200949086029E079E0000400407A
:1035200000080040000C0040001000407C0000201B
:1035300000040240181700206000002070000020E6
:10354000740000204FF400513F4809F0F7FC0120BF
:1035500000F0A8F84FF400513B4809F0EDFC0120C1
:1035600000F0A0F839480068401E38490860374824
:1035700000680028E6DA4FF48051334809F0DCFC9B
:10358000012000F08FF81F203049086014E04FF44C
:1035900000512D4809F0D2FC012000F083F84FF4CF
:1035A0000051294809F0C8FC012000F07BF82748A9
:1035B0000068401E25490860244800680028E6DAB3
:1035C000234800680EF019F9224A03C2214890ED01
:1035D000000B51EC100B0DF0AFFE00EE100A1E4870
:1035E000D0ED000AB8EEE01AC0EE010A9FED1B1AFA
:1035F0009FED1B0A10EE810ABDEEC00A10EE100A04
:103600000004184941F82400641CFF2C7FF70FAF19
:10361000012115480BF08CFC10BD70B5002400256D
:10362000012188070BF073FC012808D102020D4923
:103630000E4801F099F901F0D9FC01F0CDFD01210E
:1036400088070BF075FC70BD00040240700000207C
:103650007C000020680000207800002000008045E9
:10366000000000450057002000040040005B0020DF
:1036700010B504466FF0040009F03EFBE11704EBBF
:103680005171C1F3C701394A11701046007800EB3F
:103690004001C1EBC0104FF6FF7101EAC000344990
:1036A000088010BD0146314A12784A434FF0E023AA
:1036B0005A6100229A611A46126942F001021A61A7
:1036C00000BF4FF0E022106900F001021AB100F4CF
:1036D0008032002AF5D04FF0E022126922F0010278
:1036E0004FF0E0231A6100229A6170470146204A98
:1036F00012884A434FF0E0235A6100229A611A4629
:10370000126942F001021A6100BF4FF0E022106915
:1037100000F001021AB100F48032002AF5D04FF017
:10372000E022126922F001024FF0E0231A61002228
:103730009A61704770B504464FF4077094FBF0F03F
:10374000C6B24FF4077094FBF0F100FB114085B254
:1037500005E04FF40770FFF7C9FF701EC6B2002ED8
:10376000F7D115B12846FFF7C1FF70BD80000020DA
:1037700082000020014600BF704700BF9C4A1288AB
:1037800002F04002002AF9D0C2B2994B9A807047E9
:1037900010B588B004460121084609F0EFFD01216B
:1037A000102009F045FE07220921924809F0D3FBB9
:1037B00007220A218F4809F0CEFB4FF4C060069023
:1037C00002208DF81C008DF81D0000208DF81E00D1
:1037D00001208DF81F0006A9864809F031FB0294EC
:1037E0000020ADF80C00ADF80E00ADF81000ADF8FB
:1037F00014000C20ADF8120002A97D4809F079FFF1
:1038000001217B4809F0FDFF402179480AF0E1F8E9
:10381000012240F2255176480AF0A9F825208DF8BA
:10382000040000208DF8050002208DF8060001201C
:103830008DF8070001A809F012FA08B010BD10B504
:1038400088B004460121082009F098FD01214804B0
:1038500009F0DDFD07220521674809F07CFB0722FE
:103860000621654809F077FB6020069002208DF85C
:103870001C008DF81D0000208DF81E0001208DF821
:103880001F0006A95C4809F0DBFA02940020ADF89D
:103890000C00ADF80E00ADF81000ADF814000C20CF
:1038A000ADF8120002A9554809F023FF0121534841
:1038B00009F0A7FF402151480AF08BF8012240F29D
:1038C00025514E480AF053F826208DF804000020B8
:1038D0008DF8050001208DF806008DF8070001A87D
:1038E00009F0BDF908B010BD10B540F225514048AF
:1038F0000AF078F810B33E4809F0B2FFC4B240486D
:10390000008800F40040C8B93D48008800F48040B9
:1039100060B10A2C03D000203949088020E03848E3
:10392000008840F400403649088019E00D2C06D18B
:103930003348008840F480403149088010E0304826
:103940000088C0F30D002F490C542D480088401CFE
:103950002B49088008460088C72801DD0020088020
:1039600010BD0FB438B505A800902748009A0499F7
:103970000BF0DCFB0020009023480BF091FD054686
:1039800000BF1E48008800F040000028F9D0002445
:103990000CE01D48005D1949091D088000BF17484B
:1039A000008800F040000028F9D0641CAC42F0D33D
:1039B00038BC5DF814FB00BF104A128802F04002C8
:1039C000002AF9D001210CE04A1C825C0B4B1B1D24
:1039D0001A8000BF094A128802F04002002AF9D07A
:1039E000491C4378027803EB02228A42ECDA7047E2
:1039F0000010014000000240000C02400044004062
:103A000088000020381A0020001F00201CB501216A
:103A1000042009F0B3FC4FF48070009001208DF871
:103A2000040000208DF8060003208DF8050069468B
:103A3000D44809F005FA4FF48071D24809F07CFAB5
:103A40001CBD70B505460C460020CF4908604FF4F8
:103A50008061CE480BF0C2FD2946CDA0FFF781FF63
:103A60000CE06420FFF766FECBA1C8480BF006FD12
:103A700000B107E02146C9A00BF06AFB201EA4F1AB
:103A80000104EED100BFC6A00BF062FB002C01DCEC
:103A9000012070BD0020FCE710B504464FF4807192
:103AA000B84809F04BFA4FF48061B8480BF096FD26
:103AB0006420FFF73FFE4FF48071B24809F03CFAF2
:103AC0000CE06420FFF736FEB6A1B0480BF0D6FC40
:103AD00000B107E02146B1A00BF03AFB201EA4F193
:103AE0000104EED100BFAEA00BF032FB002C01DCD4
:103AF000012010BD0020FCE710B504460020A249BB
:103B000008604FF48061A1480BF068FDA7A2AAA14C
:103B1000ACA0FFF726FF0DE04FF47A70FFF70AFE26
:103B2000AEA19A480BF0AAFC00B107E021469BA089
:103B30000BF00EFB201EA4F10104EDD100BF98A0F4
:103B40000BF006FB002C01DC012010BD0020FCE77F
:103B500010B5044600208C4908604FF480618B4802
:103B60000BF03CFDA248A3490268A3A0FFF7F9FEB1
:103B70001AE06420FFF7DEFDA6A184480BF07EFC6E
:103B800000B115E0A5A181480BF078FC08B1012037
:103B900010BDA4A17D480BF071FC08B10220F7E72D
:103BA00021467EA00BF0D4FA201EA4F10104E0D13E
:103BB00000BF7BA00BF0CCFA002C01DC0320E7E770
:103BC0009DA00BF0C5FA00206F4908604FF480619A
:103BD0006E480BF003FDA0A0FFF7C3FE0CE06420CD
:103BE000FFF7A8FDA0A169480BF048FC00B107E071
:103BF00021466AA00BF0ACFA201EA4F10104EED11C
:103C000000BF002C01DC0420C2E70020C0E710B593
:103C1000044600205C4908604FF480615B480BF06B
:103C2000DDFC0DE04FF47A70FFF784FD91A1574859
:103C30000BF024FC00B107E0214658A00BF088FAF5
:103C4000201EA4F10104EDD100BF55A00BF080FAB5
:103C5000002C01DC012010BD0020FCE710B504465B
:103C60000DE04FF47A70FFF765FD85A147480BF032
:103C700005FC00B107E0214648A00BF069FA201EC0
:103C8000A4F10104EDD100BF45A00BF061FA002CB6
:103C900001DC012010BD0020FCE710B57BA00BF07B
:103CA00057FA3220FFF7F8FE20B17CA00BF050FA53
:103CB000012010BD7FA00BF04BFA81A00BF048FA59
:103CC000322184A0FFF7BDFE20B185A00BF040FAA1
:103CD0000220EEE789A00BF03BFA8D48007800281F
:103CE0001ED18CA00BF034FA32218FA0FFF7A9FE71
:103CF00020B191A00BF02CFA0320DAE796A00BF08C
:103D000027FA9AA00BF024FA1E20FFF7F5FE20B147
:103D10009BA00BF01DFA0420CBE7A0A00BF018FA33
:103D2000A3A00BF015FA3221A5A0FFF78AFE20B15F
:103D3000A7A00BF00DFA0820BBE7ACA00BF008FA27
:103D4000AEA00BF005FA3221B1A0FFF77AFE20B148
:103D5000B2A00BF0FDF90920ABE7B8A00BF0F8F921
:103D6000BBA00BF0F5F96420FFF7F2FE20B1BDA077
:103D70000BF0EEF90A209CE7C1A00BF0E9F9002056
:103D800097E70000000802408C000020001B002084
:103D900025730D0A000000004F4B00002564200031
:103DA0000D0A000072656164790000006561727837
:103DB0006867333700000000434D43432D55597168
:103DC0006D00000041542B43574A41503D2225735A
:103DD000222C222573220D0A000000005749464973
:103DE00020474F542049500D0A0D0A4F4B00000048
:103DF000C40000208054002041542B4349505354A8
:103E00004152543D22544350222C222573222C250A
:103E1000640D0A00434F4E4E45435400434C4F53EC
:103E200045440000414C524541445920434F4E4EB9
:103E30004543544544000000C1ACBDD3B7FECEF1AC
:103E4000C6F7B3C9B9A6A3ACD7BCB1B8BDF8C8EB27
:103E5000CDB8B4AB0D0A000041542B434950534533
:103E60004E440D0A000000000D0A4F4B0D0A0D0ACA
:103E70003E000000636F6E6E656374656400000051
:103E80005749464920474F5420495000D7BCB1B844
:103E9000B8B4CEBBC4A3BFE90D0A0000B8B4CEBB12
:103EA000CAA7B0DCA3ACD7BCB1B8D6D8C6F40D0A4B
:103EB00000000000B8B4CEBBB3C9B9A60D0A00001B
:103EC000D7BCB1B8C9E8D6C3535441C4A3CABD0DC9
:103ED0000A00000041542B43574D4F44453D3100EB
:103EE000C9E8D6C3535441C4A3CABDCAA7B0DCA312
:103EF000ACD7BCB1B8D6D8C6F40D0A00C9E8D6C351
:103F0000535441C4A3CABDB3C9B9A60D0A000000E9
:103F100090000020D7BCB1B8C8A1CFFBD7D4B6AFB2
:103F2000C1ACBDD30D0A000041542B435741555439
:103F30004F434F4E4E3D3000C8A1CFFBD7D4B6AF54
:103F4000C1ACBDD3CAA7B0DCA3ACD7BCB1B8D6D87E
:103F5000C6F40D0A00000000C8A1CFFBD7D4B6AF4D
:103F6000C1ACBDD3B3C9B9A60D0A0000D7BCB1B866
:103F7000C1ACBDD3C2B7D3C9C6F70D0A000000005B
:103F8000C1ACBDD3C2B7D3C9C6F7CAA7B0DCA3AC16
:103F9000D7BCB1B8D6D8C6F40D0A0000C1ACBDD3A9
:103FA000C2B7D3C9C6F7B3C9B9A60D0A000000004D
:103FB000D7BCB1B8C9E8D6C3CDB8B4AB0D0A0000C0
:103FC00041542B4349504D4F44453D3100000000C2
:103FD000C9E8D6C3CDB8B4ABCAA7B0DCA3ACD7BCD4
:103FE000B1B8D6D8C6F40D0A00000000C9E8D6C39F
:103FF000CDB8B4ABB3C9B9A60D0A0000D7BCB1B8EF
:10400000B9D8B1D5B6E0C2B7C1ACBDD30D0A000076
:1040100041542B4349504D55583D3000B9D8B1D586
:10402000B6E0C2B7C1ACBDD3CAA7B0DCA3ACD7BCA5
:10403000B1B8D6D8C6F40D0A00000000B9D8B1D581
:10404000B6E0C2B7C1ACBDD3B3C9B9A60D0A000072
:10405000D7BCB1B8C1ACBDD3B7FECEF1C6F70D0A1F
:1040600000000000C1ACBDD3B7FECEF1C6F7CAA7B1
:10407000B0DCA3ACD7BCB1B8D6D8C6F40D0A0000EA
:10408000C1ACBDD3B7FECEF1C6F7B3C9B9A60D0A10
:1040900000000000F648F749086008460068F64945
:1040A0000860F648F6490860F648F749086008468F
:1040B0000068F6490860F648F6490860F648F7498E
:1040C000086008460068F6490860F648F649086046
:1040D0000020F6490870F6490870F6490870F6495C
:1040E0000870704770B505460C4622462946E648DA
:1040F0000068801C0BF0F3F92046E11704EB116116
:10410000090AE14A12681170E11704EB1161091202
:10411000A4EB0121DC4A12685170DB48006800F50D
:104120000070D949086008460068DA490968884281
:1041300002D1D448D449086070BD70B504460D461C
:104140000220DE490860DE49086020460BF0A8F92D
:10415000C01CDC4908608220DB490870D848007820
:10416000D84909780844D84948700020887001204F
:10417000C87020460BF094F9000AD3490871204614
:104180000BF08EF9D049487120460BF089F90646AC
:1041900032462146CC48801D0BF0A1F920460BF099
:1041A0007FF9801DC8490D54C4480068C44A12688C
:1041B0001044C44A12688118C348FFF793FF70BDCA
:1041C00070B50120BD4908600A20BD490860BF489C
:1041D0000068001DBE4909680844801CBD49096883
:1041E0000844B8490860B6480068096844181020B7
:1041F000B549087000BF2046E11704EB5161C911B1
:10420000A4EBC115E11704EB5161CC11002C01DDC9
:1042100045F08005AC48A94A12688554A748006853
:10422000401CA6490860002CE5DC0021A64AA348F2
:10423000006811540421A1480068401C11544D210C
:104240009E480068801C115451219C480068C01C85
:104250001154542199480068001D11549748006872
:10426000401D1154042195480068801D1154C2213D
:1042700092480068C01D1154002190480068083021
:10428000115464218D480068093011548F49086821
:10429000C11700EB1161C1F307228B4B87490968F5
:1042A0000A315A5489490868C11700EB1161091293
:1042B000A0EB0121CAB2814909680B315A541A4650
:1042C0007E4909680C31501880490A6882490BF010
:1042D00006F97F490868C11700EB1161C1F3072295
:1042E000764909680C31794B1B681944764B5A544E
:1042F00077490868C11700EB11610912A0EB012191
:10430000CAB26E4909680D31704B1B6819446E4B77
:104310005A546A4909680E316C4A126811441A46A7
:1043200088186B490A686D490BF0D9F86949086823
:10433000C11700EB1161C1F30722604909680E3112
:10434000624B1B681944624B1B6819445E4B5A54FC
:1043500060490868C11700EB11610912A0EB012147
:10436000CAB2564909680F31584B1B681944584B5B
:104370001B681944544B5A54504909681031534A28
:1043800012681144524A126811441A468818514959
:104390000A6853490BF0A3F848480068484A126875
:1043A0001044484A126881184748FFF79BFE70BDC9
:1043B00010B53648006834490968884240D0324810
:1043C000006832490860084600682E49884204D1D6
:1043D00001F500602D49086023E02C480168414840
:1043E000814204D100F500602849086019E027489F
:1043F00001683D48814204D100F50060234908600E
:104400000FE022480068A0F50070204908600846C7
:104410000068A0F50070086008460068A0F500700C
:104420000860194804681948006817490860FFF7D0
:10443000C7FE00212DA0FFF780FE1348046005E0B1
:10444000FFF7BEFE002129A0FFF777FE00201849E4
:104450000870184908701849087010BD10B5A2B04E
:10446000802200211C480BF0B1F82DA25CE0000076
:10447000002300209400002098000020003100203C
:104480009C00002000330020A0000020A400002099
:1044900000410020A800002000430020AC000020C4
:1044A000B000002000510020B4000020D500002002
:1044B000D7000020D6000020D4000020C800002033
:1044C000CC000020D000002000550020B8000020C3
:1044D000BC000020C00000200053002080530020BA
:1044E0000054002000350020003700202F7379731E
:1044F0002F61315742324E46725654612F657370A8
:10450000383236362F7468696E672F736572766934
:1045100063652F70726F70657274792F73657400A4
:104520006573703832363600BDA1C7480AF01CFEEC
:10453000C5480AF0B5FFC549086080220021C4487B
:104540000BF044F8C3A3AFF22802C5A1C0480AF09B
:104550000BFEBF480AF0A4FFC34908608022002177
:1045600002A80BF033F8BBA0AFF24C03AFF250023D
:10457000BEA1009002A80AF0F7FD02A80AF090FF81
:1045800004462020C2A3CB4A2146009002A805F091
:1045900047FFC8480AF084FFC7490860802200210D
:1045A000C6480BF013F8ABA2C5A1C4480AF0DCFD65
:1045B00040F25B70CC4908600846C0490268CBA055
:1045C0000AF0C6FDA049CEA00AF0C2FDA049D0A0C5
:1045D0000AF0BEFDB749D2A00AF0BAFD22B010BD64
:1045E00010B5C020D2490870002048700221D04880
:1045F000FFF778FD10BD2DE9F047054688461646C1
:104600000120CC49086028460AF04AFF801CCA49AC
:104610000860CA48066008460068C8490968441826
:104620003020C349087000BF2046E11704EB5161F8
:10463000C911A4EBC117E11704EB5161CC11002C97
:1046400001DD47F08007BA48BA4A12688754B94872
:104650000068401CB7490860002CE5DC28460AF0D9
:104660001FFFC0F30721B24AB24800681154284620
:104670000AF016FFC1B2AE4AAE480068401C1154A1
:1046800028460AF00DFF8146A94AAA490968891CF3
:1046900050184A4629460AF022FF28460AF000FF31
:1046A000A4490968891C0844A14900EB0109324664
:1046B000414648460AF013FF9E4800689E4A126829
:1046C00010449E4A126881189948FFF70BFDBDE817
:1046D000F08770B505460C46224629469848006882
:1046E000801C0AF0FCFE2046E11704EB1161090A68
:1046F000934A12681170E11704EB11610912A4EBDF
:1047000001218F4A1268517000218D480268A01C57
:1047100011548B48006800F500708949086008460C
:10472000006888490968884202D18748844908603E
:1047300070BD2DE9F04FADF5057D804698F801106C
:1047400098F8000001EB0020849008F10207002097
:10475000814605460646834601244FF0010A00BF04
:104760000BF1010B00BF281917F8009009F07F002A
:1047700000FB0A664FEACA1A641C09F08000002890
:10478000F1D13019054431198498401A84900124DC
:10479000A246002684980028E2D159466BA00AF070
:1047A000D7FC00200546064600BF00BF809030E0E1
:1047B00000BF281917F8009009F07F0000FB0A6677
:1047C0004FEACA1A641C09F080000028F1D1601C6D
:1047D0002844395C6019385C01EB0020801C839010
:1047E0008398301A8290291983980844819081987F
:1047F00039186846829A0AF072FE68468299FFF775
:1048000068FF301905440124A24600268098401C08
:10481000809080985845CBDB0DF5057DBDE8F08F85
:1048200025737C7365637572656D6F64653D332CAC
:104830007369676E6D6574686F643D686D616373FD
:104840006861317C0000000000530020B8000020A7
:104850008053002061315742324E467256546100F7
:104860002573262573000000BC000020636C696579
:104870006E74496425736465766963654E616D6520
:10488000257370726F647563744B657925730000CE
:10489000417365577155683833306E70444C6549C3
:1048A00030716E5446757031517944585979515868
:1048B0000000000000540020C000002080540020B0
:1048C00025732E696F742D61732D6D7174742E6351
:1048D0006E2D7368616E676861692E616C697975A8
:1048E0006E63732E636F6D00C4000020B7FE20CE90
:1048F000F120C6F7A3BA25733A25640D0A0000001B
:10490000BFCDBBA7B6CB4944A3BA25730D0A00009F
:10491000D3C320BBA720C3FBA3BA25730D0A000095
:10492000C3DC20202020C2EBA3BA25730D0A0000AF
:1049300000550020C8000020CC000020D00000203E
:10494000AC000020B400002000430020B1BEB4CE73
:10495000BDD3CAD5C1CB2564B8F6CDC6CBCDCAFD73
:10496000BEDD0D0A000000002DE9F04F4FF0000CF5
:104970004FF0000301EB1C6EBEF90250BEF900407F
:104980000EF5807EBEF90290BEF900800EF5807EA5
:10499000BEF90270BEF900600EF5807EBEF902B06D
:1049A000BEF900A00EF5807ED044D944A8EB4A0A97
:1049B000A9EB4B0B4FEAA4044FEAA50504EBA604B0
:1049C00005EBA705A4EB6606A5EB670704EBA804B7
:1049D00005EBA905A4EB6808A5EB690906EBAB0696
:1049E000A7EBAA07A6EB6B0B07EB6A0A458020F83A
:1049F000044B478020F8046BA0F8029020F8048B49
:104A0000A0F802A020F804BB03F1010393FAA3FC71
:104A1000402BAFD1A0EB82014FF0100312090FF22F
:104A2000361000F1000006B403EB430C6144A2F51C
:104A3000803202EB8332B1F90250B1F90040A1EBB0
:104A40000301B0F902B0B0F900A000F10400A5EB39
:104A5000040E0EFB0BFC0AEB4B0E05FB0ACB04FB12
:104A60000ECAB1F90250B1F90040A1EB0301B0F94F
:104A70000290B0F9008000F10400A5EB040E0EFBDB
:104A800009FC08EB490E05FB08C904FB0EC8B1F987
:104A90000250B1F90040A1EB0301B0F90270B0F986
:104AA000006000F10400A5EB040E0EFB07FC06EB12
:104AB000470E05FB06C704FB0EC6B1F90250B1F95B
:104AC000004001F10001D044D944A8EB4A0AA9EB07
:104AD0004B0B4FEAA4044FEAA50504EB264405EB73
:104AE0002745A4EBE636A5EBE73704EB284405EBB6
:104AF0002945A4EBE838A5EBE93906EB2B46A7EBF3
:104B00002A47A6EBEB3B07EBEA3A4D800C801944B1
:104B10004F800E801944A1F80290A1F8008019443A
:104B2000A1F802A021F804BBB2F5803283DA03EBCE
:104B3000430C6144A2F101025FEA024E18BFA0EBF0
:104B40000C007FF476AF06BC4FEA830392087FF433
:104B50006AAFBDE8F08F0040000000400000004058
:104B600000005DDD213BA3227E180000412D7EA5C3
:104B7000412D0000412D00C000405DDD82E75DDD7C
:104B8000213B7EA5412D0040000000400000004078
:104B90000000AA2A94126B39460649327C0CA811EF
:104BA0008E2349327C0CA3227E1821F77931AA2A60
:104BB0009412A8118E235DDD213BA3227E180000F4
:104BC000412D95C6B13F461A2B1E58EE3735BEB45F
:104BD000C53EA8118E235DDD213B63A97138DF0836
:104BE0009A28B7CDC53E7EA5412D0000412D00C0BD
:104BF000004063A92B1E21F77931BEB4C53EBEB477
:104C00007C0C58EE373561AC213B95C6BAF9BAE554
:104C100071383BA737355DDD82E75DDD213B7EA541
:104C2000412D21F766D756D53F3D3BA78E23A811CE
:104C3000C9CAB7CDC53E61AC7E18AA2AC1C295C605
:104C4000B13FBEB47C0C00400000004000000040BA
:104C500000001E3BB504693E9201C83C2403EB35BD
:104C60006409C83C24036B3946066C30060E1E3BB3
:104C7000B504EB356409AA2A94126B394606493209
:104C80007C0CAE240917AF37D607882E8D0F7E1EF9
:104C90005D1BEB356409AA2A941224188C1F1E345C
:104CA000F10AB3269015A8118E2349327C0CA32259
:104CB0007E18140B60276C30060E7E1E5D1B71047F
:104CC000FB2A882E8D0F461A2B1EC7FD5A2E9D2CAF
:104CD0001211FE15E72021F77931AA2A9412A811A2
:104CE0008E2387F05334B2281314480D202602EA8D
:104CF000E536B3269015DF089A289CE32B39AE24BD
:104D000009177104FB2A5DDD213BA3227E180000F8
:104D1000412D4ED7C53C9320EF198FFB6C2F78D1D6
:104D2000153E7E1E5D1B21F77931E2CB0F3F641CDF
:104D3000C61CB8F2683395C6B13F461A2B1E58EE12
:104D4000373597C1FB3F24188C1F02EAE536F0BCCB
:104D5000EC3FFE15E720BAE57138A6B8853FD513BC
:104D60003D2282E1DB39BEB4C53EA8118E235DDD54
:104D7000213B40B1AF3D790FDA244DD9423C2EAEF4
:104D8000423C480D202656D53F3D8EAB823A140B4F
:104D9000602778D1153E63A97138DF089A28B7CD0E
:104DA000C53EB1A71236A906CE2915CA4F3F78A62F
:104DB00068337104FB2A95C6B13FBCA57630390231
:104DC000212C38C3EC3F7EA5412D0000412D00C0B1
:104DD0000040BCA5CE29C7FD5A2EF0BCEC3F78A6FA
:104DE00020268FFB6C2F09BAB13FB1A73D2257F99E
:104DF00076304DB74F3F63A92B1E21F77931BEB4F2
:104E0000C53E8EABEF19ECF474325EB2153E2EAE99
:104E10009015B8F268332DB03F3D40B1121187F0C4
:104E200053342EAE423CBEB47C0C58EE373561ACE8
:104E3000213BA6B8D6072BEC1236C8AADB39F0BC4A
:104E4000240302EAE53663A9713897C16EFEDCE7F8
:104E5000B03734A8E53695C6BAF9BAE571383BA73C
:104E60003735E2CB0FF59CE32B3978A6683378D140
:104E700073F082E1DB39EDA579314ED7EDEB6DDFD3
:104E8000823A99A56C2F5DDD82E75DDD213B7EA531
:104E9000412D9CE33AE352DBB63B99A5FB2A02EA9B
:104EA00019DF4DD9423CEDA59A2887F026DB4ED775
:104EB000C53C78A6202621F766D756D53F3D3BA7AF
:104EC0008E23C7FDDFD363D3AF3D34A8E720710441
:104ED00094D078D1153E63A92B1E140B8CCD94CFA2
:104EE000723EC8AA5D1BA811C9CAB7CDC53E61AC48
:104EF0007E18241850C8E2CB0F3F2EAE90157E1EB0
:104F000025C615CA4F3F2DB09412AE244AC451C8CD
:104F1000853F5EB28D0FAA2AC1C295C6B13FBEB40D
:104F20007C0C6C308EC1E2C4D43F4DB76409EB35C4
:104F3000B1C038C3EC3F09BA46061E3B2CC097C12E
:104F4000FB3FF0BC2403000010B52DED108B0024B6
:104F50009FEDFE0AB0EE408A00BF42E0FC480068C8
:104F60000CF036FF41EC1D0B20460CF05DFC41ECD3
:104F70001F0B9FEDF80B53EC102B0CF069FC41EC70
:104F80001E0B53EC1D2B0CF0B1FA41EC1C0BB0EED8
:104F90004C0AF0EE6C0A0BF0CBFCB0EE40BAF0EE2F
:104FA00060BA9FEDEE0B53EC102B51EC1B0B0CF089
:104FB0004FFC41EC1A0B9FEDE90B53EC102B0CF05E
:104FC000EDF941EC190B0CF0B7F908EE100ABDEE43
:104FD000C80A10EE100A0004E24941F82400601CDF
:104FE00084B2FF2CBADDBDEC108B10BD70B52DED79
:104FF0000C8B002464E0DC4830F8240005B2DA4869
:1050000050F82400061400EE105AB8EEC00ADFED86
:10501000D70A20EE200ADFEDD60A80EE209A00EEB5
:10502000106AB8EEC00ADFEDD10A20EE200ADFEDEB
:10503000D00AC0EE208A29EE090A08EEA80A10EE6E
:10504000101A08460CF0C4FE41EC1D0BB0EE4D0AE0
:10505000F0EE6D0A0BF0D0FCB0EE40CAF0EE60CA84
:105060009FEDC40B53EC102B51EC1C0B0CF0F0FB20
:1050700041EC1B0B9FEDC10B53EC102B0CF036FADF
:1050800041EC1A0B0CF058F908EE100A5CB99FEDD0
:10509000B80A28EE000ABCEEC00A10EE100AB949A0
:1050A00041F824000AE09FEDB80A28EE000ABCEEA1
:1050B000C00A10EE100AB34941F82400601C84B203
:1050C000802C98DBBDEC0C8B70BD7CB500240026D9
:1050D000002505F0EDF800BF3BE0A006060EA9494B
:1050E000701C51F82000A949097890FBF1F0C0F13B
:1050F0003D00C5B23F2D00DD3F25012003213F23A8
:105100003246CDE900102946304603F010FBA04896
:10511000005DA84202DD9E48055518E09C48005DF0
:105120003F2802DD3F209A49085501200321CDE99F
:1051300000109748005DC31C9548015D324630461B
:1051400003F0F5FA9248005D801C91490855601CF7
:1051500084B2202CC1DB05F0EAF87CBD70B50024D8
:10516000002505F0A5F8012431E0864850F8240018
:105170008649097890FBF1F0C0F13D00C5B23F2DA2
:1051800000DD3F2501233F222946204605F0B8F8DF
:105190007F48005DA84202DD7D48055515E07C484A
:1051A000005D3F2802DD3F20794908557848005DC1
:1051B000401CC2B27648015D0123204605F0A0F8EC
:1051C0007348005D801C72490855601C84B2802CB5
:1051D000CBDB05F0ACF870BD70B50024002505F000
:1051E00067F800BF49E06749601C51F82000674933
:1051F000097890FBF1F0C0F11D00C5B21F2D00DD54
:105200001F2501232A462021204605F079F8C5F103
:105210003F00C2B201232021204605F071F85C480E
:10522000005DA84202DD5A48055524E05848005D5B
:105230001E2802DD1E20564908555548005D401CB9
:10524000C2B25348015D0123204605F059F8504889
:10525000005D401CC0F13F00C2B24D48005DC0F18E
:105260003F00C1B20123204605F04AF84848005DDE
:10527000801C47490855601C84B27F2CB3DB05F0C5
:1052800056F870BD7CB500240026002505F010F806
:1052900000BF56E0A006060E3A49701C51F82000E7
:1052A0003A49097890FBF1F0C0F11D00C5B21F2DFD
:1052B00000DD1F250120032120233246CDE9001007
:1052C0002946304603F033FA01200321CDE90010CE
:1052D000C5F13F0120233246304603F028FA2C481E
:1052E000005DA84202DD2A48055528E02848005DF7
:1052F0001F2802DD1F202649085501200321CDE982
:1053000000102348005DC31C2148015D3246304631
:1053100003F00DFA01200321CDE900101C48005DC7
:10532000C0F13C031A48005DC0F13F0132463046EF
:1053300003F0FDF91648005D801C15490855601CF6
:1053400084B2202CA6DB04F0F2FF7CBD000000003C
:10535000CC1000201C2D4454FB21194000000000FB
:105360000000A04000570020005B002000008043A8
:1053700000000047000000000000F03F00000000B7
:1053800000007040005D002000008047C810002031
:105390000063002010B50024FFF7D6FD4FF48072A3
:1053A00004490548FFF7E0FAFFF720FEFFF78DFEFE
:1053B00010BD000000570020005B0020024670472F
:1053C0000246002100E0491C094830F8110020B1D4
:1053D000074830F811009042F5D1054830F8110027
:1053E00018B1044830F8110070471046FCE700007F
:1053F000FC360108DC38010870B505461DB9FDF71B
:1054000020F9044601E0012400BF00BF0CB10120D7
:1054100070BD0020FCE70146002070472DE9F041F7
:1054200005460E4617461C464FF0000814B90420E6
:10543000BDE8F08135B9224639463046FDF7C9F955
:10544000804602E04FF0010800BF00BFB8F1000F36
:1054500001D10020ECE70120EAE72DE9F041054603
:105460000E4617461C464FF0000814B90420BDE84C
:10547000F08135B9224639463046FDF7E2F98046DB
:1054800002E04FF0010800BF00BFB8F1000F01D1EA
:105490000020ECE70120EAE72DE9F04106460F463F
:1054A00015462EBB37B1012F1AD0022F0FD0032F74
:1054B0001BD111E0002020490860FCF720FF08B94B
:1054C000002400E0012401201B4908600FE04FF494
:1054D0000070288000240AE008202880002406E0CC
:1054E000FDF71FF82860002401E0042400BF1DE040
:1054F000012E1AD137B1012F0FD0022F04D0032F64
:1055000010D106E000240FE04FF400702880002442
:105510000AE008202880002406E04FF4805028602C
:10552000002401E0042400BF00E001242046BDE87F
:10553000F081002070470000B082404270B5034601
:105540000C4603E014F8015B03F8015B151EA2F1A1
:105550000102F7D170BD30B5034601E003F8011B2D
:10556000141EA2F10102F9D130BDF0B503461C466C
:105570000D46002000BF161EA2F1010207D014F84C
:10558000017B15F801CBA7EB0C06301EF3D0F0BD64
:10559000024600E0521C107810B110788842F9D110
:1055A000107870472DE9F04104460D46266BAE4257
:1055B0002FD0207908B360780123324604F13401FA
:1055C000FFF74BFF10B10120BDE8F08100202071F2
:1055D000D4E908100844B0420FD9E7780AE0206AFD
:1055E000064460780123324604F13401FFF735FFA9
:1055F000781EC7B2012FF2DC00BF55B160780123DD
:105600002A4604F13401FFF709FF08B10120DBE766
:1056100025630020D8E770B5044600212046FFF737
:10562000C1FF0546002D59D1207803284FD160795C
:1056300000284CD0002020634FF40072002104F1B8
:105640003400FFF788FF552184F83212AA2184F82C
:105650003312522084F83400522135200155612143
:1056600036200155412137200155722184F8181246
:1056700084F81912412184F81A12612184F81B124E
:10568000217C84F81C12208A010A84F81D122069EA
:10569000010C84F81E122069010E84F81F12217B70
:1056A00084F82012A089010A84F82112E068010C14
:1056B00084F82212E068010E84F823126078012336
:1056C00004F134016269FFF7C8FE00206071607860
:1056D00000221146FFF7E0FE00B10125284670BD0B
:1056E0000246891ED069801E884201D8002070477A
:1056F0009378D06A01FB0300F9E72DE9F0410546F4
:105700000C46022C02D3E869A04202D80120BDE871
:10571000F0812878012804D002282CD003285AD1FF
:105720003DE0274607EB5707686A00EB57212846FC
:10573000FFF738FF00B14EE0C7F3080105F1340070
:1057400010F801807F1C686A00EB57212846FFF79C
:1057500029FF00B13FE0C7F3080105F13400405CC8
:1057600048EA002804F0010010B14FEA1810CEE713
:10577000C8F30B00CBE7686A00EB14212846FFF75B
:1057800011FF00B127E040F2FF1000EA440105F1EB
:1057900034000E183078717840EA0120B7E7686A63
:1057A00000EBD4112846FFF7FDFE00B113E040F2F4
:1057B000FF1000EA840105F134000E18F0780006AD
:1057C000B17840EA0140717840EA0120317808431D
:1057D00020F070409BE700BF4FF0FF3097E72DE9C6
:1057E000F04705460E461746022E02D3E869B0423E
:1057F00002D84FF002088AE02878012804D0022855
:1058000041D003287DD154E0B14609EB5909686ABB
:1058100000EB59212846FFF7C5FE8046B8F1000F7E
:1058200000D071E0C9F3080105F134000C1806F04E
:10583000010020B1F9B2207861F31F1000E0384672
:10584000207009F1010901202871686A00EB5921D3
:105850002846FFF7A7FE8046B8F1000F00D053E0BE
:10586000C9F3080105F134000C1806F0010010B16D
:10587000C7F3071005E0207800F0F000C7F303211C
:105880000843207040E0686A00EB16212846FFF7C5
:1058900089FE8046B8F1000F00D035E040F2FF10DD
:1058A00000EA460105F134000C182770380A6070D0
:1058B0002AE0686A00EBD6112846FFF773FE80469F
:1058C000B8F1000F00D01FE040F2FF1000EA86019F
:1058D00005F134000C18E0780006A17840EA014098
:1058E000617840EA01202178084300F070400743C6
:1058F0002770380A6070380CA070380EE07003E032
:10590000FFE74FF0020800BF00BF012028714046AA
:10591000BDE8F0872DE9F04104460E46022E02D381
:10592000E069B04201D8022725E000271FE0314698
:105930002046FFF7E2FE054605B91BE0012D01D127
:10594000022717E0681C08B9012713E0002231463E
:105950002046FFF744FF074607B10BE02069401CD3
:1059600020B12069401C2061012060712E46E06951
:10597000B042DCD800BF3846BDE8F0812DE9F047E1
:1059800004468946B9F1000F06D1E76817B1E0690E
:10599000B84211D801270FE049462046FFF7ADFE77
:1059A0000646022E02D20120BDE8F087E069B0422F
:1059B00001D93046F8E74F463D4600BF6D1CE0690F
:1059C000A84204D80225BD4201D90020ECE72946AF
:1059D0002046FFF792FE064606B909E0701C08B1A2
:1059E000012E01D13046DFE7BD42E7D10020DBE7E1
:1059F00000BF6FF0704229462046FFF7F0FE804658
:105A0000B8F1000F08D1B9F1000F05D02A46494678
:105A10002046FFF7E4FE8046B8F1000F09D1E560AB
:105A20002069401C68B12069401E2061012060711E
:105A300007E0B8F1010F02D14FF0FF3000E0012084
:105A400005462846B0E770B503460D46586A021D64
:105A5000680A1E68B678B0FBF6F400BF02CA09B93E
:105A6000002070BD8C4200D202E0641A121DF5E7DE
:105A700000BF10682044F4E72DE9F04104460E46CB
:105A8000E680A568012D03D02068C069A84202D82D
:105A90000220BDE8F0812DB920680078032801D1EB
:105AA0002068856A65B9E56020680089B04201DC3C
:105AB0000220EEE72068806A00EB1610206120E0EB
:105AC00020688078070112E029462068FFF715FE5C
:105AD0000546681C08B90120DBE7022D03D32068C6
